{
  "contractName": "Example",
  "abi": [
    {
      "inputs": [],
      "name": "_x",
      "outputs": [
        {
          "internalType": "uint256",
          "name": "",
          "type": "uint256"
        }
      ],
      "stateMutability": "view",
      "type": "function"
    },
    {
      "inputs": [
        {
          "internalType": "uint256",
          "name": "x_",
          "type": "uint256"
        }
      ],
      "name": "initialize",
      "outputs": [],
      "stateMutability": "nonpayable",
      "type": "function"
    }
  ],
  "bytecode": "0x608060405234801561001057600080fd5b5061020e806100206000396000f3fe608060405234801561001057600080fd5b50600436106100365760003560e01c8063298097031461003b578063fe4b84df14610059575b600080fd5b610043610087565b6040518082815260200191505060405180910390f35b6100856004803603602081101561006f57600080fd5b810190808035906020019092919050505061008d565b005b60015481565b600060019054906101000a900460ff16806100ac57506100ab610193565b5b806100c2575060008054906101000a900460ff16155b610117576040517f08c379a000000000000000000000000000000000000000000000000000000000815260040180806020018281038252602e8152602001806101ab602e913960400191505060405180910390fd5b60008060019054906101000a900460ff161590508015610167576001600060016101000a81548160ff02191690831515021790555060016000806101000a81548160ff0219169083151502179055505b81600181905550801561018f5760008060016101000a81548160ff0219169083151502179055505b5050565b6000803090506000813b905060008114925050509056fe496e697469616c697a61626c653a20636f6e747261637420697320616c726561647920696e697469616c697a6564a26469706673582212208ccc540c1d039134099802828b988c7a8b2a1df5e731f36298f0ab45a602550964736f6c63430007000033",
  "immutableReferences": {},
  "source": "// SPDX-License-Identifier: MIT\n\npragma solidity 0.7.0;\n\nimport \"@openzeppelin/contracts/proxy/Initializable.sol\";\n\ncontract Example is Initializable {\n    uint256 public _x;\n\n    function initialize(uint256 x_) public initializer {\n        _x = x_;\n    }\n}",
  "sourcePath": "/home/ace/Projects/shandie/openzeppelin-learn/contracts/ProxyExample/Example.sol",
  "compiler": {
    "name": "solc",
    "version": "0.7.0+commit.9e61f92b.Emscripten.clang"
  },
  "schemaVersion": "3.4.3",
  "updatedAt": "2021-10-11T03:21:40.715Z",
  "devdoc": {
    "kind": "dev",
    "methods": {},
    "version": 1
  },
  "userdoc": {
    "kind": "user",
    "methods": {},
    "version": 1
  }
}